{
  "abi": [
    {
      "inputs": [],
      "stateMutability": "payable",
      "type": "constructor"
    },
    {
      "anonymous": false,
      "inputs": [
        {
          "indexed": true,
          "internalType": "address",
          "name": "from",
          "type": "address"
        },
        {
          "indexed": false,
          "internalType": "uint256",
          "name": "timestamp",
          "type": "uint256"
        },
        {
          "indexed": false,
          "internalType": "string",
          "name": "message",
          "type": "string"
        },
        {
          "indexed": false,
          "internalType": "string",
          "name": "name",
          "type": "string"
        },
        {
          "indexed": false,
          "internalType": "string",
          "name": "image",
          "type": "string"
        }
      ],
      "name": "newAdd",
      "type": "event"
    },
    {
      "inputs": [],
      "name": "getAdds",
      "outputs": [
        {
          "components": [
            {
              "internalType": "uint256",
              "name": "timestamp",
              "type": "uint256"
            },
            {
              "internalType": "string",
              "name": "name",
              "type": "string"
            },
            {
              "internalType": "string",
              "name": "message",
              "type": "string"
            },
            {
              "internalType": "string",
              "name": "image",
              "type": "string"
            },
            {
              "internalType": "address",
              "name": "sender",
              "type": "address"
            }
          ],
          "internalType": "struct MyContract.Add[]",
          "name": "",
          "type": "tuple[]"
        }
      ],
      "stateMutability": "view",
      "type": "function"
    },
    {
      "inputs": [],
      "name": "getTotalAdds",
      "outputs": [
        {
          "internalType": "uint256",
          "name": "",
          "type": "uint256"
        }
      ],
      "stateMutability": "view",
      "type": "function"
    },
    {
      "inputs": [],
      "name": "owner",
      "outputs": [
        {
          "internalType": "address payable",
          "name": "",
          "type": "address"
        }
      ],
      "stateMutability": "view",
      "type": "function"
    },
    {
      "inputs": [
        {
          "internalType": "string",
          "name": "_message",
          "type": "string"
        },
        {
          "internalType": "string",
          "name": "_name",
          "type": "string"
        },
        {
          "internalType": "string",
          "name": "_image",
          "type": "string"
        }
      ],
      "name": "placeAdd",
      "outputs": [],
      "stateMutability": "payable",
      "type": "function"
    },
    {
      "inputs": [],
      "name": "totalAds",
      "outputs": [
        {
          "internalType": "uint256",
          "name": "",
          "type": "uint256"
        }
      ],
      "stateMutability": "view",
      "type": "function"
    }
  ],
  "devdoc": {
    "kind": "dev",
    "methods": {},
    "version": 1
  },
  "evm": {
    "assembly": "    /* \"Contract.sol\":65:1200  contract MyContract {... */\n  mstore(0x40, 0x80)\n    /* \"Contract.sol\":187:192  owner */\n  0x01\n    /* \"Contract.sol\":187:214  owner = payable(msg.sender) */\n  dup1\n  sload\n  not(sub(shl(0xa0, 0x01), 0x01))\n  and\n    /* \"Contract.sol\":203:213  msg.sender */\n  caller\n    /* \"Contract.sol\":187:214  owner = payable(msg.sender) */\n  or\n  swap1\n  sstore\n    /* \"Contract.sol\":65:1200  contract MyContract {... */\n  dataSize(sub_0)\n  dup1\n  dataOffset(sub_0)\n  0x00\n  codecopy\n  0x00\n  return\nstop\n\nsub_0: assembly {\n        /* \"Contract.sol\":65:1200  contract MyContract {... */\n      mstore(0x40, 0x80)\n      jumpi(tag_1, lt(calldatasize, 0x04))\n      shr(0xe0, calldataload(0x00))\n      dup1\n      0x9f34fa93\n      gt\n      tag_7\n      jumpi\n      dup1\n      0x9f34fa93\n      eq\n      tag_4\n      jumpi\n      dup1\n      0xae613705\n      eq\n      tag_5\n      jumpi\n      dup1\n      0xf65bcfd6\n      eq\n      tag_6\n      jumpi\n      0x00\n      dup1\n      revert\n    tag_7:\n      dup1\n      0x8da5cb5b\n      eq\n      tag_2\n      jumpi\n      dup1\n      0x97b116aa\n      eq\n      tag_3\n      jumpi\n    tag_1:\n      0x00\n      dup1\n      revert\n        /* \"Contract.sol\":120:148  address payable public owner */\n    tag_2:\n      callvalue\n      dup1\n      iszero\n      tag_8\n      jumpi\n      0x00\n      dup1\n      revert\n    tag_8:\n      pop\n      sload(0x01)\n      tag_9\n      swap1\n      sub(shl(0xa0, 0x01), 0x01)\n      and\n      dup2\n      jump\n    tag_9:\n      mload(0x40)\n      sub(shl(0xa0, 0x01), 0x01)\n        /* \"#utility.yul\":194:249   */\n      swap1\n      swap2\n      and\n        /* \"#utility.yul\":176:250   */\n      dup2\n      mstore\n        /* \"#utility.yul\":164:166   */\n      0x20\n        /* \"#utility.yul\":149:167   */\n      add\n        /* \"Contract.sol\":120:148  address payable public owner */\n    tag_11:\n      mload(0x40)\n      dup1\n      swap2\n      sub\n      swap1\n      return\n        /* \"Contract.sol\":714:1198  function placeAdd(string memory _message, string memory _name, string memory _image) payable public {... */\n    tag_3:\n      tag_13\n      tag_14\n      calldatasize\n      0x04\n      tag_15\n      jump\t// in\n    tag_14:\n      tag_16\n      jump\t// in\n    tag_13:\n      stop\n        /* \"Contract.sol\":623:708  function getTotalAdds() public view returns(uint256) {... */\n    tag_4:\n      callvalue\n      dup1\n      iszero\n      tag_17\n      jumpi\n      0x00\n      dup1\n      revert\n    tag_17:\n      pop\n        /* \"Contract.sol\":667:674  uint256 */\n      0x00\n        /* \"Contract.sol\":693:701  totalAds */\n      sload\n        /* \"Contract.sol\":623:708  function getTotalAdds() public view returns(uint256) {... */\n    tag_18:\n      mload(0x40)\n        /* \"#utility.yul\":2011:2036   */\n      swap1\n      dup2\n      mstore\n        /* \"#utility.yul\":1999:2001   */\n      0x20\n        /* \"#utility.yul\":1984:2002   */\n      add\n        /* \"Contract.sol\":623:708  function getTotalAdds() public view returns(uint256) {... */\n      tag_11\n        /* \"#utility.yul\":1865:2042   */\n      jump\n        /* \"Contract.sol\":536:617  function getAdds() public view returns(Add[] memory) {... */\n    tag_5:\n      callvalue\n      dup1\n      iszero\n      tag_22\n      jumpi\n      0x00\n      dup1\n      revert\n    tag_22:\n      pop\n      tag_23\n      tag_24\n      jump\t// in\n    tag_23:\n      mload(0x40)\n      tag_11\n      swap2\n      swap1\n      tag_26\n      jump\t// in\n        /* \"Contract.sol\":91:114  uint256 public totalAds */\n    tag_6:\n      callvalue\n      dup1\n      iszero\n      tag_27\n      jumpi\n      0x00\n      dup1\n      revert\n    tag_27:\n      pop\n      tag_18\n      sload(0x00)\n      dup2\n      jump\n        /* \"Contract.sol\":714:1198  function placeAdd(string memory _message, string memory _name, string memory _image) payable public {... */\n    tag_16:\n        /* \"Contract.sol\":832:841  msg.value */\n      callvalue\n        /* \"Contract.sol\":845:855  0.01 ether */\n      0x2386f26fc10000\n        /* \"Contract.sol\":832:855  msg.value == 0.01 ether */\n      eq\n        /* \"Contract.sol\":824:900  require(msg.value == 0.01 ether, \"You have to pay 0.01 ether to place add.\") */\n      tag_32\n      jumpi\n      mload(0x40)\n      shl(0xe5, 0x461bcd)\n      dup2\n      mstore\n        /* \"#utility.yul\":4138:4140   */\n      0x20\n        /* \"Contract.sol\":824:900  require(msg.value == 0.01 ether, \"You have to pay 0.01 ether to place add.\") */\n      0x04\n      dup3\n      add\n        /* \"#utility.yul\":4120:4141   */\n      mstore\n        /* \"#utility.yul\":4177:4179   */\n      0x28\n        /* \"#utility.yul\":4157:4175   */\n      0x24\n      dup3\n      add\n        /* \"#utility.yul\":4150:4180   */\n      mstore\n        /* \"#utility.yul\":4216:4250   */\n      0x596f75206861766520746f2070617920302e303120657468657220746f20706c\n        /* \"#utility.yul\":4196:4214   */\n      0x44\n      dup3\n      add\n        /* \"#utility.yul\":4189:4251   */\n      mstore\n        /* \"#utility.yul\":4287:4297   */\n      0x616365206164642e000000000000000000000000000000000000000000000000\n        /* \"#utility.yul\":4267:4285   */\n      0x64\n      dup3\n      add\n        /* \"#utility.yul\":4260:4298   */\n      mstore\n        /* \"#utility.yul\":4315:4334   */\n      0x84\n      add\n        /* \"Contract.sol\":824:900  require(msg.value == 0.01 ether, \"You have to pay 0.01 ether to place add.\") */\n    tag_33:\n      mload(0x40)\n      dup1\n      swap2\n      sub\n      swap1\n      revert\n    tag_32:\n        /* \"Contract.sol\":923:924  1 */\n      0x01\n        /* \"Contract.sol\":911:919  totalAds */\n      0x00\n      dup1\n        /* \"Contract.sol\":911:924  totalAds += 1 */\n      dup3\n      dup3\n      sload\n      tag_35\n      swap2\n      swap1\n      tag_36\n      jump\t// in\n    tag_35:\n      swap1\n      swap2\n      sstore\n      pop\n      pop\n        /* \"Contract.sol\":944:1001  Add(block.timestamp, _name, _message, _image, msg.sender) */\n      0x40\n      dup1\n      mload\n      0xa0\n      dup2\n      add\n      dup3\n      mstore\n        /* \"Contract.sol\":948:963  block.timestamp */\n      timestamp\n        /* \"Contract.sol\":944:1001  Add(block.timestamp, _name, _message, _image, msg.sender) */\n      dup2\n      mstore\n      0x20\n      dup2\n      add\n      dup5\n      dup2\n      mstore\n      swap2\n      dup2\n      add\n      dup6\n      swap1\n      mstore\n      0x60\n      dup2\n      add\n      dup4\n      swap1\n      mstore\n        /* \"Contract.sol\":990:1000  msg.sender */\n      caller\n        /* \"Contract.sol\":944:1001  Add(block.timestamp, _name, _message, _image, msg.sender) */\n      0x80\n      dup3\n      add\n      mstore\n        /* \"Contract.sol\":934:938  adds */\n      0x02\n        /* \"Contract.sol\":934:1002  adds.push(Add(block.timestamp, _name, _message, _image, msg.sender)) */\n      dup1\n      sload\n      0x01\n      dup2\n      add\n      dup3\n      sstore\n      0x00\n      swap2\n      swap1\n      swap2\n      mstore\n      dup2\n      mload\n      0x05\n      swap1\n      swap2\n      mul\n      0x405787fa12a823e0f2b7631cc41b3ba8828b3321ca811111fa75cd3aa3bb5ace\n      dup2\n      add\n      swap2\n      dup3\n      sstore\n      swap3\n      mload\n        /* \"Contract.sol\":944:1001  Add(block.timestamp, _name, _message, _image, msg.sender) */\n      swap2\n      swap3\n        /* \"Contract.sol\":934:1002  adds.push(Add(block.timestamp, _name, _message, _image, msg.sender)) */\n      swap1\n      swap2\n      0x405787fa12a823e0f2b7631cc41b3ba8828b3321ca811111fa75cd3aa3bb5acf\n      swap1\n      swap2\n      add\n      swap1\n      tag_38\n      swap1\n      dup3\n      tag_39\n      jump\t// in\n    tag_38:\n      pop\n      0x40\n      dup3\n      add\n      mload\n      0x02\n      dup3\n      add\n      swap1\n      tag_40\n      swap1\n      dup3\n      tag_39\n      jump\t// in\n    tag_40:\n      pop\n      0x60\n      dup3\n      add\n      mload\n      0x03\n      dup3\n      add\n      swap1\n      tag_41\n      swap1\n      dup3\n      tag_39\n      jump\t// in\n    tag_41:\n      pop\n      0x80\n      swap2\n      swap1\n      swap2\n      add\n      mload\n      0x04\n      swap1\n      swap2\n      add\n      dup1\n      sload\n      0xffffffffffffffffffffffff0000000000000000000000000000000000000000\n      and\n      sub(shl(0xa0, 0x01), 0x01)\n      swap3\n      dup4\n      and\n      or\n      swap1\n      sstore\n      0x01\n        /* \"Contract.sol\":1031:1036  owner */\n      sload\n        /* \"Contract.sol\":1031:1063  owner.call{value: msg.value}(\"\") */\n      mload(0x40)\n      0x00\n      swap3\n        /* \"Contract.sol\":1031:1036  owner */\n      swap2\n      swap1\n      swap2\n      and\n      swap1\n        /* \"Contract.sol\":1049:1058  msg.value */\n      callvalue\n      swap1\n      dup4\n        /* \"Contract.sol\":1031:1063  owner.call{value: msg.value}(\"\") */\n      dup2\n      dup2\n      dup2\n        /* \"Contract.sol\":1049:1058  msg.value */\n      dup6\n        /* \"Contract.sol\":1031:1036  owner */\n      dup8\n        /* \"Contract.sol\":1031:1063  owner.call{value: msg.value}(\"\") */\n      gas\n      call\n      swap3\n      pop\n      pop\n      pop\n      returndatasize\n      dup1\n      0x00\n      dup2\n      eq\n      tag_46\n      jumpi\n      mload(0x40)\n      swap2\n      pop\n      and(add(returndatasize, 0x3f), not(0x1f))\n      dup3\n      add\n      0x40\n      mstore\n      returndatasize\n      dup3\n      mstore\n      returndatasize\n      0x00\n      0x20\n      dup5\n      add\n      returndatacopy\n      jump(tag_45)\n    tag_46:\n      0x60\n      swap2\n      pop\n    tag_45:\n      pop\n        /* \"Contract.sol\":1013:1063  (bool success,) = owner.call{value: msg.value}(\"\") */\n      pop\n      swap1\n      pop\n        /* \"Contract.sol\":1081:1088  success */\n      dup1\n        /* \"Contract.sol\":1073:1115  require(success, \"Failed to pay for add.\") */\n      tag_47\n      jumpi\n      mload(0x40)\n      shl(0xe5, 0x461bcd)\n      dup2\n      mstore\n        /* \"#utility.yul\":7539:7541   */\n      0x20\n        /* \"Contract.sol\":1073:1115  require(success, \"Failed to pay for add.\") */\n      0x04\n      dup3\n      add\n        /* \"#utility.yul\":7521:7542   */\n      mstore\n        /* \"#utility.yul\":7578:7580   */\n      0x16\n        /* \"#utility.yul\":7558:7576   */\n      0x24\n      dup3\n      add\n        /* \"#utility.yul\":7551:7581   */\n      mstore\n        /* \"#utility.yul\":7617:7641   */\n      0x4661696c656420746f2070617920666f72206164642e00000000000000000000\n        /* \"#utility.yul\":7597:7615   */\n      0x44\n      dup3\n      add\n        /* \"#utility.yul\":7590:7642   */\n      mstore\n        /* \"#utility.yul\":7659:7677   */\n      0x64\n      add\n        /* \"Contract.sol\":1073:1115  require(success, \"Failed to pay for add.\") */\n      tag_33\n        /* \"#utility.yul\":7337:7683   */\n      jump\n        /* \"Contract.sol\":1073:1115  require(success, \"Failed to pay for add.\") */\n    tag_47:\n        /* \"Contract.sol\":1138:1148  msg.sender */\n      caller\n      sub(shl(0xa0, 0x01), 0x01)\n        /* \"Contract.sol\":1131:1191  newAdd(msg.sender, block.timestamp, _message, _name, _image) */\n      and\n      0xc1b504acc91ef26c45194965a61ec574decd67e5ef7826d718f190ded3a19921\n        /* \"Contract.sol\":1150:1165  block.timestamp */\n      timestamp\n        /* \"Contract.sol\":1167:1175  _message */\n      dup7\n        /* \"Contract.sol\":1177:1182  _name */\n      dup7\n        /* \"Contract.sol\":1184:1190  _image */\n      dup7\n        /* \"Contract.sol\":1131:1191  newAdd(msg.sender, block.timestamp, _message, _name, _image) */\n      mload(0x40)\n      tag_50\n      swap5\n      swap4\n      swap3\n      swap2\n      swap1\n      tag_51\n      jump\t// in\n    tag_50:\n      mload(0x40)\n      dup1\n      swap2\n      sub\n      swap1\n      log2\n        /* \"Contract.sol\":814:1198  {... */\n      pop\n        /* \"Contract.sol\":714:1198  function placeAdd(string memory _message, string memory _name, string memory _image) payable public {... */\n      pop\n      pop\n      pop\n      jump\t// out\n        /* \"Contract.sol\":536:617  function getAdds() public view returns(Add[] memory) {... */\n    tag_24:\n        /* \"Contract.sol\":575:587  Add[] memory */\n      0x60\n        /* \"Contract.sol\":606:610  adds */\n      0x02\n        /* \"Contract.sol\":599:610  return adds */\n      dup1\n      sload\n      dup1\n      0x20\n      mul\n      0x20\n      add\n      mload(0x40)\n      swap1\n      dup2\n      add\n      0x40\n      mstore\n      dup1\n      swap3\n      swap2\n      swap1\n      dup2\n      dup2\n      mstore\n      0x20\n      add\n      0x00\n      swap1\n    tag_54:\n      dup3\n      dup3\n      lt\n      iszero\n      tag_55\n      jumpi\n      dup4\n      dup3\n      swap1\n      0x00\n      mstore\n      keccak256(0x00, 0x20)\n      swap1\n      0x05\n      mul\n      add\n      mload(0x40)\n      dup1\n      0xa0\n      add\n      0x40\n      mstore\n      swap1\n      dup2\n      0x00\n      dup3\n      add\n      sload\n      dup2\n      mstore\n      0x20\n      add\n      0x01\n      dup3\n      add\n      dup1\n      sload\n      tag_57\n      swap1\n      tag_58\n      jump\t// in\n    tag_57:\n      dup1\n      0x1f\n      add\n      0x20\n      dup1\n      swap2\n      div\n      mul\n      0x20\n      add\n      mload(0x40)\n      swap1\n      dup2\n      add\n      0x40\n      mstore\n      dup1\n      swap3\n      swap2\n      swap1\n      dup2\n      dup2\n      mstore\n      0x20\n      add\n      dup3\n      dup1\n      sload\n      tag_59\n      swap1\n      tag_58\n      jump\t// in\n    tag_59:\n      dup1\n      iszero\n      tag_60\n      jumpi\n      dup1\n      0x1f\n      lt\n      tag_61\n      jumpi\n      0x0100\n      dup1\n      dup4\n      sload\n      div\n      mul\n      dup4\n      mstore\n      swap2\n      0x20\n      add\n      swap2\n      jump(tag_60)\n    tag_61:\n      dup3\n      add\n      swap2\n      swap1\n      0x00\n      mstore\n      keccak256(0x00, 0x20)\n      swap1\n    tag_62:\n      dup2\n      sload\n      dup2\n      mstore\n      swap1\n      0x01\n      add\n      swap1\n      0x20\n      add\n      dup1\n      dup4\n      gt\n      tag_62\n      jumpi\n      dup3\n      swap1\n      sub\n      0x1f\n      and\n      dup3\n      add\n      swap2\n    tag_60:\n      pop\n      pop\n      pop\n      pop\n      pop\n      dup2\n      mstore\n      0x20\n      add\n      0x02\n      dup3\n      add\n      dup1\n      sload\n      tag_63\n      swap1\n      tag_58\n      jump\t// in\n    tag_63:\n      dup1\n      0x1f\n      add\n      0x20\n      dup1\n      swap2\n      div\n      mul\n      0x20\n      add\n      mload(0x40)\n      swap1\n      dup2\n      add\n      0x40\n      mstore\n      dup1\n      swap3\n      swap2\n      swap1\n      dup2\n      dup2\n      mstore\n      0x20\n      add\n      dup3\n      dup1\n      sload\n      tag_64\n      swap1\n      tag_58\n      jump\t// in\n    tag_64:\n      dup1\n      iszero\n      tag_65\n      jumpi\n      dup1\n      0x1f\n      lt\n      tag_66\n      jumpi\n      0x0100\n      dup1\n      dup4\n      sload\n      div\n      mul\n      dup4\n      mstore\n      swap2\n      0x20\n      add\n      swap2\n      jump(tag_65)\n    tag_66:\n      dup3\n      add\n      swap2\n      swap1\n      0x00\n      mstore\n      keccak256(0x00, 0x20)\n      swap1\n    tag_67:\n      dup2\n      sload\n      dup2\n      mstore\n      swap1\n      0x01\n      add\n      swap1\n      0x20\n      add\n      dup1\n      dup4\n      gt\n      tag_67\n      jumpi\n      dup3\n      swap1\n      sub\n      0x1f\n      and\n      dup3\n      add\n      swap2\n    tag_65:\n      pop\n      pop\n      pop\n      pop\n      pop\n      dup2\n      mstore\n      0x20\n      add\n      0x03\n      dup3\n      add\n      dup1\n      sload\n      tag_68\n      swap1\n      tag_58\n      jump\t// in\n    tag_68:\n      dup1\n      0x1f\n      add\n      0x20\n      dup1\n      swap2\n      div\n      mul\n      0x20\n      add\n      mload(0x40)\n      swap1\n      dup2\n      add\n      0x40\n      mstore\n      dup1\n      swap3\n      swap2\n      swap1\n      dup2\n      dup2\n      mstore\n      0x20\n      add\n      dup3\n      dup1\n      sload\n      tag_69\n      swap1\n      tag_58\n      jump\t// in\n    tag_69:\n      dup1\n      iszero\n      tag_70\n      jumpi\n      dup1\n      0x1f\n      lt\n      tag_71\n      jumpi\n      0x0100\n      dup1\n      dup4\n      sload\n      div\n      mul\n      dup4\n      mstore\n      swap2\n      0x20\n      add\n      swap2\n      jump(tag_70)\n    tag_71:\n      dup3\n      add\n      swap2\n      swap1\n      0x00\n      mstore\n      keccak256(0x00, 0x20)\n      swap1\n    tag_72:\n      dup2\n      sload\n      dup2\n      mstore\n      swap1\n      0x01\n      add\n      swap1\n      0x20\n      add\n      dup1\n      dup4\n      gt\n      tag_72\n      jumpi\n      dup3\n      swap1\n      sub\n      0x1f\n      and\n      dup3\n      add\n      swap2\n    tag_70:\n      pop\n      pop\n      pop\n      swap2\n      dup4\n      mstore\n      pop\n      pop\n      0x04\n      swap2\n      swap1\n      swap2\n      add\n      sload\n      sub(shl(0xa0, 0x01), 0x01)\n      and\n      0x20\n      swap2\n      dup3\n      add\n      mstore\n      swap1\n      dup3\n      mstore\n      0x01\n      swap3\n      swap1\n      swap3\n      add\n      swap2\n      add\n      jump(tag_54)\n    tag_55:\n      pop\n      pop\n      pop\n      pop\n      swap1\n      pop\n        /* \"Contract.sol\":536:617  function getAdds() public view returns(Add[] memory) {... */\n      swap1\n      jump\t// out\n        /* \"#utility.yul\":261:388   */\n    tag_73:\n        /* \"#utility.yul\":322:332   */\n      0x4e487b71\n        /* \"#utility.yul\":317:320   */\n      0xe0\n        /* \"#utility.yul\":313:333   */\n      shl\n        /* \"#utility.yul\":310:311   */\n      0x00\n        /* \"#utility.yul\":303:334   */\n      mstore\n        /* \"#utility.yul\":353:357   */\n      0x41\n        /* \"#utility.yul\":350:351   */\n      0x04\n        /* \"#utility.yul\":343:358   */\n      mstore\n        /* \"#utility.yul\":377:381   */\n      0x24\n        /* \"#utility.yul\":374:375   */\n      0x00\n        /* \"#utility.yul\":367:382   */\n      revert\n        /* \"#utility.yul\":393:1112   */\n    tag_74:\n        /* \"#utility.yul\":436:441   */\n      0x00\n        /* \"#utility.yul\":489:492   */\n      dup3\n        /* \"#utility.yul\":482:486   */\n      0x1f\n        /* \"#utility.yul\":474:480   */\n      dup4\n        /* \"#utility.yul\":470:487   */\n      add\n        /* \"#utility.yul\":466:493   */\n      slt\n        /* \"#utility.yul\":456:511   */\n      tag_83\n      jumpi\n        /* \"#utility.yul\":507:508   */\n      0x00\n        /* \"#utility.yul\":504:505   */\n      dup1\n        /* \"#utility.yul\":497:509   */\n      revert\n        /* \"#utility.yul\":456:511   */\n    tag_83:\n        /* \"#utility.yul\":543:549   */\n      dup2\n        /* \"#utility.yul\":530:550   */\n      calldataload\n        /* \"#utility.yul\":569:587   */\n      0xffffffffffffffff\n        /* \"#utility.yul\":606:608   */\n      dup1\n        /* \"#utility.yul\":602:604   */\n      dup3\n        /* \"#utility.yul\":599:609   */\n      gt\n        /* \"#utility.yul\":596:632   */\n      iszero\n      tag_85\n      jumpi\n        /* \"#utility.yul\":612:630   */\n      tag_85\n      tag_73\n      jump\t// in\n    tag_85:\n        /* \"#utility.yul\":687:689   */\n      0x40\n        /* \"#utility.yul\":681:690   */\n      mload\n        /* \"#utility.yul\":655:657   */\n      0x1f\n        /* \"#utility.yul\":741:754   */\n      dup4\n      add\n      not(0x1f)\n        /* \"#utility.yul\":737:759   */\n      swap1\n      dup2\n      and\n        /* \"#utility.yul\":761:763   */\n      0x3f\n        /* \"#utility.yul\":733:764   */\n      add\n        /* \"#utility.yul\":729:769   */\n      and\n        /* \"#utility.yul\":717:770   */\n      dup2\n      add\n      swap1\n        /* \"#utility.yul\":785:803   */\n      dup3\n      dup3\n      gt\n        /* \"#utility.yul\":805:827   */\n      dup2\n      dup4\n      lt\n        /* \"#utility.yul\":782:828   */\n      or\n        /* \"#utility.yul\":779:851   */\n      iszero\n      tag_87\n      jumpi\n        /* \"#utility.yul\":831:849   */\n      tag_87\n      tag_73\n      jump\t// in\n    tag_87:\n        /* \"#utility.yul\":871:881   */\n      dup2\n        /* \"#utility.yul\":867:869   */\n      0x40\n        /* \"#utility.yul\":860:882   */\n      mstore\n        /* \"#utility.yul\":906:908   */\n      dup4\n        /* \"#utility.yul\":898:904   */\n      dup2\n        /* \"#utility.yul\":891:909   */\n      mstore\n        /* \"#utility.yul\":952:955   */\n      dup7\n        /* \"#utility.yul\":945:949   */\n      0x20\n        /* \"#utility.yul\":940:942   */\n      dup6\n        /* \"#utility.yul\":932:938   */\n      dup9\n        /* \"#utility.yul\":928:943   */\n      add\n        /* \"#utility.yul\":924:950   */\n      add\n        /* \"#utility.yul\":921:956   */\n      gt\n        /* \"#utility.yul\":918:973   */\n      iszero\n      tag_88\n      jumpi\n        /* \"#utility.yul\":969:970   */\n      0x00\n        /* \"#utility.yul\":966:967   */\n      dup1\n        /* \"#utility.yul\":959:971   */\n      revert\n        /* \"#utility.yul\":918:973   */\n    tag_88:\n        /* \"#utility.yul\":1033:1035   */\n      dup4\n        /* \"#utility.yul\":1026:1030   */\n      0x20\n        /* \"#utility.yul\":1018:1024   */\n      dup8\n        /* \"#utility.yul\":1014:1031   */\n      add\n        /* \"#utility.yul\":1007:1011   */\n      0x20\n        /* \"#utility.yul\":999:1005   */\n      dup4\n        /* \"#utility.yul\":995:1012   */\n      add\n        /* \"#utility.yul\":982:1036   */\n      calldatacopy\n        /* \"#utility.yul\":1080:1081   */\n      0x00\n        /* \"#utility.yul\":1073:1077   */\n      0x20\n        /* \"#utility.yul\":1068:1070   */\n      dup6\n        /* \"#utility.yul\":1060:1066   */\n      dup4\n        /* \"#utility.yul\":1056:1071   */\n      add\n        /* \"#utility.yul\":1052:1078   */\n      add\n        /* \"#utility.yul\":1045:1082   */\n      mstore\n        /* \"#utility.yul\":1100:1106   */\n      dup1\n        /* \"#utility.yul\":1091:1106   */\n      swap5\n      pop\n      pop\n      pop\n      pop\n      pop\n        /* \"#utility.yul\":393:1112   */\n      swap3\n      swap2\n      pop\n      pop\n      jump\t// out\n        /* \"#utility.yul\":1117:1860   */\n    tag_15:\n        /* \"#utility.yul\":1224:1230   */\n      0x00\n        /* \"#utility.yul\":1232:1238   */\n      dup1\n        /* \"#utility.yul\":1240:1246   */\n      0x00\n        /* \"#utility.yul\":1293:1295   */\n      0x60\n        /* \"#utility.yul\":1281:1290   */\n      dup5\n        /* \"#utility.yul\":1272:1279   */\n      dup7\n        /* \"#utility.yul\":1268:1291   */\n      sub\n        /* \"#utility.yul\":1264:1296   */\n      slt\n        /* \"#utility.yul\":1261:1313   */\n      iszero\n      tag_90\n      jumpi\n        /* \"#utility.yul\":1309:1310   */\n      0x00\n        /* \"#utility.yul\":1306:1307   */\n      dup1\n        /* \"#utility.yul\":1299:1311   */\n      revert\n        /* \"#utility.yul\":1261:1313   */\n    tag_90:\n        /* \"#utility.yul\":1349:1358   */\n      dup4\n        /* \"#utility.yul\":1336:1359   */\n      calldataload\n        /* \"#utility.yul\":1378:1396   */\n      0xffffffffffffffff\n        /* \"#utility.yul\":1419:1421   */\n      dup1\n        /* \"#utility.yul\":1411:1417   */\n      dup3\n        /* \"#utility.yul\":1408:1422   */\n      gt\n        /* \"#utility.yul\":1405:1439   */\n      iszero\n      tag_91\n      jumpi\n        /* \"#utility.yul\":1435:1436   */\n      0x00\n        /* \"#utility.yul\":1432:1433   */\n      dup1\n        /* \"#utility.yul\":1425:1437   */\n      revert\n        /* \"#utility.yul\":1405:1439   */\n    tag_91:\n        /* \"#utility.yul\":1458:1508   */\n      tag_92\n        /* \"#utility.yul\":1500:1507   */\n      dup8\n        /* \"#utility.yul\":1491:1497   */\n      dup4\n        /* \"#utility.yul\":1480:1489   */\n      dup9\n        /* \"#utility.yul\":1476:1498   */\n      add\n        /* \"#utility.yul\":1458:1508   */\n      tag_74\n      jump\t// in\n    tag_92:\n        /* \"#utility.yul\":1448:1508   */\n      swap5\n      pop\n        /* \"#utility.yul\":1561:1563   */\n      0x20\n        /* \"#utility.yul\":1550:1559   */\n      dup7\n        /* \"#utility.yul\":1546:1564   */\n      add\n        /* \"#utility.yul\":1533:1565   */\n      calldataload\n        /* \"#utility.yul\":1517:1565   */\n      swap2\n      pop\n        /* \"#utility.yul\":1590:1592   */\n      dup1\n        /* \"#utility.yul\":1580:1588   */\n      dup3\n        /* \"#utility.yul\":1577:1593   */\n      gt\n        /* \"#utility.yul\":1574:1610   */\n      iszero\n      tag_93\n      jumpi\n        /* \"#utility.yul\":1606:1607   */\n      0x00\n        /* \"#utility.yul\":1603:1604   */\n      dup1\n        /* \"#utility.yul\":1596:1608   */\n      revert\n        /* \"#utility.yul\":1574:1610   */\n    tag_93:\n        /* \"#utility.yul\":1629:1681   */\n      tag_94\n        /* \"#utility.yul\":1673:1680   */\n      dup8\n        /* \"#utility.yul\":1662:1670   */\n      dup4\n        /* \"#utility.yul\":1651:1660   */\n      dup9\n        /* \"#utility.yul\":1647:1671   */\n      add\n        /* \"#utility.yul\":1629:1681   */\n      tag_74\n      jump\t// in\n    tag_94:\n        /* \"#utility.yul\":1619:1681   */\n      swap4\n      pop\n        /* \"#utility.yul\":1734:1736   */\n      0x40\n        /* \"#utility.yul\":1723:1732   */\n      dup7\n        /* \"#utility.yul\":1719:1737   */\n      add\n        /* \"#utility.yul\":1706:1738   */\n      calldataload\n        /* \"#utility.yul\":1690:1738   */\n      swap2\n      pop\n        /* \"#utility.yul\":1763:1765   */\n      dup1\n        /* \"#utility.yul\":1753:1761   */\n      dup3\n        /* \"#utility.yul\":1750:1766   */\n      gt\n        /* \"#utility.yul\":1747:1783   */\n      iszero\n      tag_95\n      jumpi\n        /* \"#utility.yul\":1779:1780   */\n      0x00\n        /* \"#utility.yul\":1776:1777   */\n      dup1\n        /* \"#utility.yul\":1769:1781   */\n      revert\n        /* \"#utility.yul\":1747:1783   */\n    tag_95:\n      pop\n        /* \"#utility.yul\":1802:1854   */\n      tag_96\n        /* \"#utility.yul\":1846:1853   */\n      dup7\n        /* \"#utility.yul\":1835:1843   */\n      dup3\n        /* \"#utility.yul\":1824:1833   */\n      dup8\n        /* \"#utility.yul\":1820:1844   */\n      add\n        /* \"#utility.yul\":1802:1854   */\n      tag_74\n      jump\t// in\n    tag_96:\n        /* \"#utility.yul\":1792:1854   */\n      swap2\n      pop\n      pop\n        /* \"#utility.yul\":1117:1860   */\n      swap3\n      pop\n      swap3\n      pop\n      swap3\n      jump\t// out\n        /* \"#utility.yul\":2047:2336   */\n    tag_75:\n        /* \"#utility.yul\":2089:2092   */\n      0x00\n        /* \"#utility.yul\":2127:2132   */\n      dup2\n        /* \"#utility.yul\":2121:2133   */\n      mload\n        /* \"#utility.yul\":2154:2160   */\n      dup1\n        /* \"#utility.yul\":2149:2152   */\n      dup5\n        /* \"#utility.yul\":2142:2161   */\n      mstore\n        /* \"#utility.yul\":2210:2216   */\n      dup1\n        /* \"#utility.yul\":2203:2207   */\n      0x20\n        /* \"#utility.yul\":2196:2201   */\n      dup5\n        /* \"#utility.yul\":2192:2208   */\n      add\n        /* \"#utility.yul\":2185:2189   */\n      0x20\n        /* \"#utility.yul\":2180:2183   */\n      dup7\n        /* \"#utility.yul\":2176:2190   */\n      add\n        /* \"#utility.yul\":2170:2217   */\n      mcopy\n        /* \"#utility.yul\":2262:2263   */\n      0x00\n        /* \"#utility.yul\":2255:2259   */\n      0x20\n        /* \"#utility.yul\":2246:2252   */\n      dup3\n        /* \"#utility.yul\":2241:2244   */\n      dup7\n        /* \"#utility.yul\":2237:2253   */\n      add\n        /* \"#utility.yul\":2233:2260   */\n      add\n        /* \"#utility.yul\":2226:2264   */\n      mstore\n        /* \"#utility.yul\":2325:2329   */\n      0x20\n        /* \"#utility.yul\":2318:2320   */\n      0x1f\n        /* \"#utility.yul\":2314:2321   */\n      not\n        /* \"#utility.yul\":2309:2311   */\n      0x1f\n        /* \"#utility.yul\":2301:2307   */\n      dup4\n        /* \"#utility.yul\":2297:2312   */\n      add\n        /* \"#utility.yul\":2293:2322   */\n      and\n        /* \"#utility.yul\":2288:2291   */\n      dup6\n        /* \"#utility.yul\":2284:2323   */\n      add\n        /* \"#utility.yul\":2280:2330   */\n      add\n        /* \"#utility.yul\":2273:2330   */\n      swap2\n      pop\n      pop\n        /* \"#utility.yul\":2047:2336   */\n      swap3\n      swap2\n      pop\n      pop\n      jump\t// out\n        /* \"#utility.yul\":2341:3931   */\n    tag_26:\n        /* \"#utility.yul\":2521:2525   */\n      0x00\n        /* \"#utility.yul\":2550:2552   */\n      0x20\n        /* \"#utility.yul\":2590:2592   */\n      dup1\n        /* \"#utility.yul\":2579:2588   */\n      dup4\n        /* \"#utility.yul\":2575:2593   */\n      add\n        /* \"#utility.yul\":2620:2622   */\n      dup2\n        /* \"#utility.yul\":2609:2618   */\n      dup5\n        /* \"#utility.yul\":2602:2623   */\n      mstore\n        /* \"#utility.yul\":2643:2649   */\n      dup1\n        /* \"#utility.yul\":2678:2684   */\n      dup6\n        /* \"#utility.yul\":2672:2685   */\n      mload\n        /* \"#utility.yul\":2709:2715   */\n      dup1\n        /* \"#utility.yul\":2701:2707   */\n      dup4\n        /* \"#utility.yul\":2694:2716   */\n      mstore\n        /* \"#utility.yul\":2735:2737   */\n      0x40\n        /* \"#utility.yul\":2725:2737   */\n      swap3\n      pop\n        /* \"#utility.yul\":2768:2770   */\n      0x40\n        /* \"#utility.yul\":2757:2766   */\n      dup7\n        /* \"#utility.yul\":2753:2771   */\n      add\n        /* \"#utility.yul\":2746:2771   */\n      swap2\n      pop\n        /* \"#utility.yul\":2830:2832   */\n      0x40\n        /* \"#utility.yul\":2820:2826   */\n      dup2\n        /* \"#utility.yul\":2817:2818   */\n      0x05\n        /* \"#utility.yul\":2813:2827   */\n      shl\n        /* \"#utility.yul\":2802:2811   */\n      dup8\n        /* \"#utility.yul\":2798:2828   */\n      add\n        /* \"#utility.yul\":2794:2833   */\n      add\n        /* \"#utility.yul\":2868:2870   */\n      dup5\n        /* \"#utility.yul\":2860:2866   */\n      dup9\n        /* \"#utility.yul\":2856:2871   */\n      add\n        /* \"#utility.yul\":2889:2890   */\n      0x00\n        /* \"#utility.yul\":2899:3902   */\n    tag_100:\n        /* \"#utility.yul\":2913:2919   */\n      dup4\n        /* \"#utility.yul\":2910:2911   */\n      dup2\n        /* \"#utility.yul\":2907:2920   */\n      lt\n        /* \"#utility.yul\":2899:3902   */\n      iszero\n      tag_102\n      jumpi\n        /* \"#utility.yul\":3006:3008   */\n      0x3f\n        /* \"#utility.yul\":3002:3009   */\n      not\n        /* \"#utility.yul\":2990:2999   */\n      dup10\n        /* \"#utility.yul\":2982:2988   */\n      dup5\n        /* \"#utility.yul\":2978:3000   */\n      sub\n        /* \"#utility.yul\":2974:3010   */\n      add\n        /* \"#utility.yul\":2969:2972   */\n      dup6\n        /* \"#utility.yul\":2962:3011   */\n      mstore\n        /* \"#utility.yul\":3040:3046   */\n      dup2\n        /* \"#utility.yul\":3034:3047   */\n      mload\n        /* \"#utility.yul\":3070:3074   */\n      0xa0\n        /* \"#utility.yul\":3108:3110   */\n      dup2\n        /* \"#utility.yul\":3102:3111   */\n      mload\n        /* \"#utility.yul\":3094:3100   */\n      dup6\n        /* \"#utility.yul\":3087:3112   */\n      mstore\n        /* \"#utility.yul\":3159:3161   */\n      dup9\n        /* \"#utility.yul\":3155:3157   */\n      dup3\n        /* \"#utility.yul\":3151:3162   */\n      add\n        /* \"#utility.yul\":3145:3163   */\n      mload\n        /* \"#utility.yul\":3200:3202   */\n      dup2\n        /* \"#utility.yul\":3195:3197   */\n      dup11\n        /* \"#utility.yul\":3187:3193   */\n      dup8\n        /* \"#utility.yul\":3183:3198   */\n      add\n        /* \"#utility.yul\":3176:3203   */\n      mstore\n        /* \"#utility.yul\":3230:3278   */\n      tag_103\n        /* \"#utility.yul\":3274:3276   */\n      dup3\n        /* \"#utility.yul\":3266:3272   */\n      dup8\n        /* \"#utility.yul\":3262:3277   */\n      add\n        /* \"#utility.yul\":3248:3260   */\n      dup3\n        /* \"#utility.yul\":3230:3278   */\n      tag_75\n      jump\t// in\n    tag_103:\n        /* \"#utility.yul\":3216:3278   */\n      swap2\n      pop\n      pop\n        /* \"#utility.yul\":3327:3329   */\n      dup8\n        /* \"#utility.yul\":3323:3325   */\n      dup3\n        /* \"#utility.yul\":3319:3330   */\n      add\n        /* \"#utility.yul\":3313:3331   */\n      mload\n        /* \"#utility.yul\":3380:3386   */\n      dup6\n        /* \"#utility.yul\":3372:3378   */\n      dup3\n        /* \"#utility.yul\":3368:3387   */\n      sub\n        /* \"#utility.yul\":3363:3365   */\n      dup10\n        /* \"#utility.yul\":3355:3361   */\n      dup8\n        /* \"#utility.yul\":3351:3366   */\n      add\n        /* \"#utility.yul\":3344:3388   */\n      mstore\n        /* \"#utility.yul\":3415:3456   */\n      tag_104\n        /* \"#utility.yul\":3449:3455   */\n      dup3\n        /* \"#utility.yul\":3433:3447   */\n      dup3\n        /* \"#utility.yul\":3415:3456   */\n      tag_75\n      jump\t// in\n    tag_104:\n        /* \"#utility.yul\":3401:3456   */\n      swap2\n      pop\n      pop\n        /* \"#utility.yul\":3479:3483   */\n      0x60\n        /* \"#utility.yul\":3532:3534   */\n      dup1\n        /* \"#utility.yul\":3528:3530   */\n      dup4\n        /* \"#utility.yul\":3524:3535   */\n      add\n        /* \"#utility.yul\":3518:3536   */\n      mload\n        /* \"#utility.yul\":3585:3591   */\n      dup7\n        /* \"#utility.yul\":3577:3583   */\n      dup4\n        /* \"#utility.yul\":3573:3592   */\n      sub\n        /* \"#utility.yul\":3568:3570   */\n      dup3\n        /* \"#utility.yul\":3560:3566   */\n      dup9\n        /* \"#utility.yul\":3556:3571   */\n      add\n        /* \"#utility.yul\":3549:3593   */\n      mstore\n        /* \"#utility.yul\":3620:3661   */\n      tag_105\n        /* \"#utility.yul\":3654:3660   */\n      dup4\n        /* \"#utility.yul\":3638:3652   */\n      dup3\n        /* \"#utility.yul\":3620:3661   */\n      tag_75\n      jump\t// in\n    tag_105:\n        /* \"#utility.yul\":3684:3688   */\n      0x80\n        /* \"#utility.yul\":3735:3746   */\n      swap5\n      dup6\n      add\n        /* \"#utility.yul\":3729:3747   */\n      mload\n      sub(shl(0xa0, 0x01), 0x01)\n        /* \"#utility.yul\":3725:3792   */\n      and\n        /* \"#utility.yul\":3708:3723   */\n      swap8\n      swap1\n      swap5\n      add\n        /* \"#utility.yul\":3701:3793   */\n      swap7\n      swap1\n      swap7\n      mstore\n      pop\n      pop\n        /* \"#utility.yul\":3880:3892   */\n      swap5\n      dup8\n      add\n      swap5\n        /* \"#utility.yul\":3606:3661   */\n      swap3\n      pop\n        /* \"#utility.yul\":3845:3860   */\n      swap1\n      dup7\n      add\n      swap1\n        /* \"#utility.yul\":2935:2936   */\n      0x01\n        /* \"#utility.yul\":2928:2937   */\n      add\n        /* \"#utility.yul\":2899:3902   */\n      jump(tag_100)\n    tag_102:\n      pop\n        /* \"#utility.yul\":3919:3925   */\n      swap1\n      swap9\n        /* \"#utility.yul\":2341:3931   */\n      swap8\n      pop\n      pop\n      pop\n      pop\n      pop\n      pop\n      pop\n      pop\n      jump\t// out\n        /* \"#utility.yul\":4345:4567   */\n    tag_36:\n        /* \"#utility.yul\":4410:4419   */\n      dup1\n      dup3\n      add\n        /* \"#utility.yul\":4431:4441   */\n      dup1\n      dup3\n      gt\n        /* \"#utility.yul\":4428:4561   */\n      iszero\n      tag_108\n      jumpi\n        /* \"#utility.yul\":4483:4493   */\n      0x4e487b71\n        /* \"#utility.yul\":4478:4481   */\n      0xe0\n        /* \"#utility.yul\":4474:4494   */\n      shl\n        /* \"#utility.yul\":4471:4472   */\n      0x00\n        /* \"#utility.yul\":4464:4495   */\n      mstore\n        /* \"#utility.yul\":4518:4522   */\n      0x11\n        /* \"#utility.yul\":4515:4516   */\n      0x04\n        /* \"#utility.yul\":4508:4523   */\n      mstore\n        /* \"#utility.yul\":4546:4550   */\n      0x24\n        /* \"#utility.yul\":4543:4544   */\n      0x00\n        /* \"#utility.yul\":4536:4551   */\n      revert\n        /* \"#utility.yul\":4428:4561   */\n    tag_108:\n        /* \"#utility.yul\":4345:4567   */\n      swap3\n      swap2\n      pop\n      pop\n      jump\t// out\n        /* \"#utility.yul\":4572:4952   */\n    tag_58:\n        /* \"#utility.yul\":4651:4652   */\n      0x01\n        /* \"#utility.yul\":4647:4659   */\n      dup2\n      dup2\n      shr\n      swap1\n        /* \"#utility.yul\":4694:4706   */\n      dup3\n      and\n      dup1\n        /* \"#utility.yul\":4715:4776   */\n      tag_110\n      jumpi\n        /* \"#utility.yul\":4769:4773   */\n      0x7f\n        /* \"#utility.yul\":4761:4767   */\n      dup3\n        /* \"#utility.yul\":4757:4774   */\n      and\n        /* \"#utility.yul\":4747:4774   */\n      swap2\n      pop\n        /* \"#utility.yul\":4715:4776   */\n    tag_110:\n        /* \"#utility.yul\":4822:4824   */\n      0x20\n        /* \"#utility.yul\":4814:4820   */\n      dup3\n        /* \"#utility.yul\":4811:4825   */\n      lt\n        /* \"#utility.yul\":4791:4809   */\n      dup2\n        /* \"#utility.yul\":4788:4826   */\n      sub\n        /* \"#utility.yul\":4785:4946   */\n      tag_111\n      jumpi\n        /* \"#utility.yul\":4868:4878   */\n      0x4e487b71\n        /* \"#utility.yul\":4863:4866   */\n      0xe0\n        /* \"#utility.yul\":4859:4879   */\n      shl\n        /* \"#utility.yul\":4856:4857   */\n      0x00\n        /* \"#utility.yul\":4849:4880   */\n      mstore\n        /* \"#utility.yul\":4903:4907   */\n      0x22\n        /* \"#utility.yul\":4900:4901   */\n      0x04\n        /* \"#utility.yul\":4893:4908   */\n      mstore\n        /* \"#utility.yul\":4931:4935   */\n      0x24\n        /* \"#utility.yul\":4928:4929   */\n      0x00\n        /* \"#utility.yul\":4921:4936   */\n      revert\n        /* \"#utility.yul\":4785:4946   */\n    tag_111:\n      pop\n        /* \"#utility.yul\":4572:4952   */\n      swap2\n      swap1\n      pop\n      jump\t// out\n        /* \"#utility.yul\":5083:5601   */\n    tag_77:\n        /* \"#utility.yul\":5185:5187   */\n      0x1f\n        /* \"#utility.yul\":5180:5183   */\n      dup3\n        /* \"#utility.yul\":5177:5188   */\n      gt\n        /* \"#utility.yul\":5174:5595   */\n      iszero\n      tag_114\n      jumpi\n        /* \"#utility.yul\":5221:5226   */\n      dup1\n        /* \"#utility.yul\":5218:5219   */\n      0x00\n        /* \"#utility.yul\":5211:5227   */\n      mstore\n        /* \"#utility.yul\":5265:5269   */\n      0x20\n        /* \"#utility.yul\":5262:5263   */\n      0x00\n        /* \"#utility.yul\":5252:5270   */\n      keccak256\n        /* \"#utility.yul\":5335:5337   */\n      0x1f\n        /* \"#utility.yul\":5323:5333   */\n      dup5\n        /* \"#utility.yul\":5319:5338   */\n      add\n        /* \"#utility.yul\":5316:5317   */\n      0x05\n        /* \"#utility.yul\":5312:5339   */\n      shr\n        /* \"#utility.yul\":5306:5310   */\n      dup2\n        /* \"#utility.yul\":5302:5340   */\n      add\n        /* \"#utility.yul\":5371:5375   */\n      0x20\n        /* \"#utility.yul\":5359:5369   */\n      dup6\n        /* \"#utility.yul\":5356:5376   */\n      lt\n        /* \"#utility.yul\":5353:5400   */\n      iszero\n      tag_115\n      jumpi\n      pop\n        /* \"#utility.yul\":5394:5398   */\n      dup1\n        /* \"#utility.yul\":5353:5400   */\n    tag_115:\n        /* \"#utility.yul\":5449:5451   */\n      0x1f\n        /* \"#utility.yul\":5444:5447   */\n      dup5\n        /* \"#utility.yul\":5440:5452   */\n      add\n        /* \"#utility.yul\":5437:5438   */\n      0x05\n        /* \"#utility.yul\":5433:5453   */\n      shr\n        /* \"#utility.yul\":5427:5431   */\n      dup3\n        /* \"#utility.yul\":5423:5454   */\n      add\n        /* \"#utility.yul\":5413:5454   */\n      swap2\n      pop\n        /* \"#utility.yul\":5504:5585   */\n    tag_116:\n        /* \"#utility.yul\":5522:5524   */\n      dup2\n        /* \"#utility.yul\":5515:5520   */\n      dup2\n        /* \"#utility.yul\":5512:5525   */\n      lt\n        /* \"#utility.yul\":5504:5585   */\n      iszero\n      tag_118\n      jumpi\n        /* \"#utility.yul\":5581:5582   */\n      0x00\n        /* \"#utility.yul\":5567:5583   */\n      dup2\n      sstore\n        /* \"#utility.yul\":5548:5549   */\n      0x01\n        /* \"#utility.yul\":5537:5550   */\n      add\n        /* \"#utility.yul\":5504:5585   */\n      jump(tag_116)\n    tag_118:\n        /* \"#utility.yul\":5508:5511   */\n      pop\n      pop\n        /* \"#utility.yul\":5174:5595   */\n    tag_114:\n        /* \"#utility.yul\":5083:5601   */\n      pop\n      pop\n      pop\n      jump\t// out\n        /* \"#utility.yul\":5777:7122   */\n    tag_39:\n        /* \"#utility.yul\":5903:5906   */\n      dup2\n        /* \"#utility.yul\":5897:5907   */\n      mload\n        /* \"#utility.yul\":5930:5948   */\n      0xffffffffffffffff\n        /* \"#utility.yul\":5922:5928   */\n      dup2\n        /* \"#utility.yul\":5919:5949   */\n      gt\n        /* \"#utility.yul\":5916:5972   */\n      iszero\n      tag_122\n      jumpi\n        /* \"#utility.yul\":5952:5970   */\n      tag_122\n      tag_73\n      jump\t// in\n    tag_122:\n        /* \"#utility.yul\":5981:6078   */\n      tag_123\n        /* \"#utility.yul\":6071:6077   */\n      dup2\n        /* \"#utility.yul\":6031:6069   */\n      tag_124\n        /* \"#utility.yul\":6063:6067   */\n      dup5\n        /* \"#utility.yul\":6057:6068   */\n      sload\n        /* \"#utility.yul\":6031:6069   */\n      tag_58\n      jump\t// in\n    tag_124:\n        /* \"#utility.yul\":6025:6029   */\n      dup5\n        /* \"#utility.yul\":5981:6078   */\n      tag_77\n      jump\t// in\n    tag_123:\n        /* \"#utility.yul\":6133:6137   */\n      0x20\n      dup1\n        /* \"#utility.yul\":6190:6192   */\n      0x1f\n        /* \"#utility.yul\":6179:6193   */\n      dup4\n      gt\n        /* \"#utility.yul\":6207:6208   */\n      0x01\n        /* \"#utility.yul\":6202:6865   */\n      dup2\n      eq\n      tag_126\n      jumpi\n        /* \"#utility.yul\":6909:6910   */\n      0x00\n        /* \"#utility.yul\":6926:6932   */\n      dup5\n        /* \"#utility.yul\":6923:7012   */\n      iszero\n      tag_127\n      jumpi\n      pop\n        /* \"#utility.yul\":6978:6997   */\n      dup6\n      dup4\n      add\n        /* \"#utility.yul\":6972:6998   */\n      mload\n        /* \"#utility.yul\":6923:7012   */\n    tag_127:\n      not(0x00)\n        /* \"#utility.yul\":5734:5735   */\n      0x03\n        /* \"#utility.yul\":5730:5741   */\n      dup7\n      swap1\n      shl\n        /* \"#utility.yul\":5726:5750   */\n      shr\n        /* \"#utility.yul\":5722:5751   */\n      not\n        /* \"#utility.yul\":5712:5752   */\n      and\n        /* \"#utility.yul\":5758:5759   */\n      0x01\n        /* \"#utility.yul\":5754:5765   */\n      dup6\n      swap1\n      shl\n        /* \"#utility.yul\":5709:5766   */\n      or\n        /* \"#utility.yul\":7025:7106   */\n      dup6\n      sstore\n        /* \"#utility.yul\":6172:7116   */\n      jump(tag_125)\n        /* \"#utility.yul\":6202:6865   */\n    tag_126:\n        /* \"#utility.yul\":5030:5031   */\n      0x00\n        /* \"#utility.yul\":5023:5037   */\n      dup6\n      dup2\n      mstore\n        /* \"#utility.yul\":5067:5071   */\n      0x20\n        /* \"#utility.yul\":5054:5072   */\n      dup2\n      keccak256\n      not(0x1f)\n        /* \"#utility.yul\":6238:6258   */\n      dup7\n      and\n      swap2\n        /* \"#utility.yul\":6356:6592   */\n    tag_130:\n        /* \"#utility.yul\":6370:6377   */\n      dup3\n        /* \"#utility.yul\":6367:6368   */\n      dup2\n        /* \"#utility.yul\":6364:6378   */\n      lt\n        /* \"#utility.yul\":6356:6592   */\n      iszero\n      tag_132\n      jumpi\n        /* \"#utility.yul\":6459:6478   */\n      dup9\n      dup7\n      add\n        /* \"#utility.yul\":6453:6479   */\n      mload\n        /* \"#utility.yul\":6438:6480   */\n      dup3\n      sstore\n        /* \"#utility.yul\":6551:6578   */\n      swap5\n      dup5\n      add\n      swap5\n        /* \"#utility.yul\":6519:6520   */\n      0x01\n        /* \"#utility.yul\":6507:6521   */\n      swap1\n      swap2\n      add\n      swap1\n        /* \"#utility.yul\":6386:6405   */\n      dup5\n      add\n        /* \"#utility.yul\":6356:6592   */\n      jump(tag_130)\n    tag_132:\n        /* \"#utility.yul\":6360:6363   */\n      pop\n        /* \"#utility.yul\":6620:6626   */\n      dup6\n        /* \"#utility.yul\":6611:6618   */\n      dup3\n        /* \"#utility.yul\":6608:6627   */\n      lt\n        /* \"#utility.yul\":6605:6806   */\n      iszero\n      tag_133\n      jumpi\n        /* \"#utility.yul\":6681:6700   */\n      dup8\n      dup6\n      add\n        /* \"#utility.yul\":6675:6701   */\n      mload\n      not(0x00)\n        /* \"#utility.yul\":6764:6765   */\n      0x03\n        /* \"#utility.yul\":6760:6774   */\n      dup9\n      swap1\n      shl\n        /* \"#utility.yul\":6776:6779   */\n      0xf8\n        /* \"#utility.yul\":6756:6780   */\n      and\n        /* \"#utility.yul\":6752:6789   */\n      shr\n        /* \"#utility.yul\":6748:6790   */\n      not\n        /* \"#utility.yul\":6733:6791   */\n      and\n        /* \"#utility.yul\":6718:6792   */\n      dup2\n      sstore\n        /* \"#utility.yul\":6605:6806   */\n    tag_133:\n      pop\n      pop\n        /* \"#utility.yul\":6852:6853   */\n      0x01\n        /* \"#utility.yul\":6843:6849   */\n      dup5\n        /* \"#utility.yul\":6840:6841   */\n      0x01\n        /* \"#utility.yul\":6836:6850   */\n      shl\n        /* \"#utility.yul\":6832:6854   */\n      add\n        /* \"#utility.yul\":6826:6830   */\n      dup6\n        /* \"#utility.yul\":6819:6855   */\n      sstore\n        /* \"#utility.yul\":6172:7116   */\n    tag_125:\n      pop\n      pop\n      pop\n      pop\n        /* \"#utility.yul\":5777:7122   */\n      pop\n      pop\n      jump\t// out\n        /* \"#utility.yul\":7688:8307   */\n    tag_51:\n        /* \"#utility.yul\":7961:7967   */\n      dup5\n        /* \"#utility.yul\":7950:7959   */\n      dup2\n        /* \"#utility.yul\":7943:7968   */\n      mstore\n        /* \"#utility.yul\":8004:8007   */\n      0x80\n        /* \"#utility.yul\":7999:8001   */\n      0x20\n        /* \"#utility.yul\":7988:7997   */\n      dup3\n        /* \"#utility.yul\":7984:8002   */\n      add\n        /* \"#utility.yul\":7977:8008   */\n      mstore\n        /* \"#utility.yul\":7924:7928   */\n      0x00\n        /* \"#utility.yul\":8031:8077   */\n      tag_137\n        /* \"#utility.yul\":8072:8075   */\n      0x80\n        /* \"#utility.yul\":8061:8070   */\n      dup4\n        /* \"#utility.yul\":8057:8076   */\n      add\n        /* \"#utility.yul\":8049:8055   */\n      dup7\n        /* \"#utility.yul\":8031:8077   */\n      tag_75\n      jump\t// in\n    tag_137:\n        /* \"#utility.yul\":8125:8134   */\n      dup3\n        /* \"#utility.yul\":8117:8123   */\n      dup2\n        /* \"#utility.yul\":8113:8135   */\n      sub\n        /* \"#utility.yul\":8108:8110   */\n      0x40\n        /* \"#utility.yul\":8097:8106   */\n      dup5\n        /* \"#utility.yul\":8093:8111   */\n      add\n        /* \"#utility.yul\":8086:8136   */\n      mstore\n        /* \"#utility.yul\":8159:8192   */\n      tag_138\n        /* \"#utility.yul\":8185:8191   */\n      dup2\n        /* \"#utility.yul\":8177:8183   */\n      dup7\n        /* \"#utility.yul\":8159:8192   */\n      tag_75\n      jump\t// in\n    tag_138:\n        /* \"#utility.yul\":8145:8192   */\n      swap1\n      pop\n        /* \"#utility.yul\":8240:8249   */\n      dup3\n        /* \"#utility.yul\":8232:8238   */\n      dup2\n        /* \"#utility.yul\":8228:8250   */\n      sub\n        /* \"#utility.yul\":8223:8225   */\n      0x60\n        /* \"#utility.yul\":8212:8221   */\n      dup5\n        /* \"#utility.yul\":8208:8226   */\n      add\n        /* \"#utility.yul\":8201:8251   */\n      mstore\n        /* \"#utility.yul\":8268:8301   */\n      tag_139\n        /* \"#utility.yul\":8294:8300   */\n      dup2\n        /* \"#utility.yul\":8286:8292   */\n      dup6\n        /* \"#utility.yul\":8268:8301   */\n      tag_75\n      jump\t// in\n    tag_139:\n        /* \"#utility.yul\":8260:8301   */\n      swap8\n        /* \"#utility.yul\":7688:8307   */\n      swap7\n      pop\n      pop\n      pop\n      pop\n      pop\n      pop\n      pop\n      jump\t// out\n\n    auxdata: 0xa2646970667358221220617e9f01310d9dc6d59f9384ce1af796b263346a49722cd718beb0b05fc3e29864736f6c63430008190033\n}\n",
    "bytecode": {
      "linkReferences": {},
      "object": "6080604052600180546001600160a01b0319163317905561099f806100235f395ff3fe608060405260043610610058575f3560e01c80639f34fa93116100415780639f34fa93146100ad578063ae613705146100ca578063f65bcfd6146100eb575f80fd5b80638da5cb5b1461005c57806397b116aa14610098575b5f80fd5b348015610067575f80fd5b5060015461007b906001600160a01b031681565b6040516001600160a01b0390911681526020015b60405180910390f35b6100ab6100a6366004610647565b6100ff565b005b3480156100b8575f80fd5b505f545b60405190815260200161008f565b3480156100d5575f80fd5b506100de61037f565b60405161008f91906106f7565b3480156100f6575f80fd5b506100bc5f5481565b34662386f26fc10000146101805760405162461bcd60e51b815260206004820152602860248201527f596f75206861766520746f2070617920302e303120657468657220746f20706c60448201527f616365206164642e00000000000000000000000000000000000000000000000060648201526084015b60405180910390fd5b60015f8082825461019191906107b7565b90915550506040805160a0810182524281526020810184815291810185905260608101839052336080820152600280546001810182555f91909152815160059091027f405787fa12a823e0f2b7631cc41b3ba8828b3321ca811111fa75cd3aa3bb5ace81019182559251919290917f405787fa12a823e0f2b7631cc41b3ba8828b3321ca811111fa75cd3aa3bb5acf9091019061022e9082610860565b50604082015160028201906102439082610860565b50606082015160038201906102589082610860565b5060809190910151600490910180547fffffffffffffffffffffffff0000000000000000000000000000000000000000166001600160a01b039283161790556001546040515f92919091169034908381818185875af1925050503d805f81146102dc576040519150601f19603f3d011682016040523d82523d5f602084013e6102e1565b606091505b50509050806103325760405162461bcd60e51b815260206004820152601660248201527f4661696c656420746f2070617920666f72206164642e000000000000000000006044820152606401610177565b336001600160a01b03167fc1b504acc91ef26c45194965a61ec574decd67e5ef7826d718f190ded3a19921428686866040516103719493929190610920565b60405180910390a250505050565b60606002805480602002602001604051908101604052809291908181526020015f905b828210156105a1578382905f5260205f2090600502016040518060a00160405290815f82015481526020016001820180546103dc906107dc565b80601f0160208091040260200160405190810160405280929190818152602001828054610408906107dc565b80156104535780601f1061042a57610100808354040283529160200191610453565b820191905f5260205f20905b81548152906001019060200180831161043657829003601f168201915b5050505050815260200160028201805461046c906107dc565b80601f0160208091040260200160405190810160405280929190818152602001828054610498906107dc565b80156104e35780601f106104ba576101008083540402835291602001916104e3565b820191905f5260205f20905b8154815290600101906020018083116104c657829003601f168201915b505050505081526020016003820180546104fc906107dc565b80601f0160208091040260200160405190810160405280929190818152602001828054610528906107dc565b80156105735780601f1061054a57610100808354040283529160200191610573565b820191905f5260205f20905b81548152906001019060200180831161055657829003601f168201915b5050509183525050600491909101546001600160a01b031660209182015290825260019290920191016103a2565b50505050905090565b634e487b7160e01b5f52604160045260245ffd5b5f82601f8301126105cd575f80fd5b813567ffffffffffffffff808211156105e8576105e86105aa565b604051601f8301601f19908116603f01168101908282118183101715610610576106106105aa565b81604052838152866020858801011115610628575f80fd5b836020870160208301375f602085830101528094505050505092915050565b5f805f60608486031215610659575f80fd5b833567ffffffffffffffff80821115610670575f80fd5b61067c878388016105be565b94506020860135915080821115610691575f80fd5b61069d878388016105be565b935060408601359150808211156106b2575f80fd5b506106bf868287016105be565b9150509250925092565b5f81518084528060208401602086015e5f602082860101526020601f19601f83011685010191505092915050565b5f60208083018184528085518083526040925060408601915060408160051b8701018488015f5b838110156107a957603f19898403018552815160a08151855288820151818a87015261074c828701826106c9565b915050878201518582038987015261076482826106c9565b9150506060808301518683038288015261077e83826106c9565b6080948501516001600160a01b0316979094019690965250509487019492509086019060010161071e565b509098975050505050505050565b808201808211156107d657634e487b7160e01b5f52601160045260245ffd5b92915050565b600181811c908216806107f057607f821691505b60208210810361080e57634e487b7160e01b5f52602260045260245ffd5b50919050565b601f82111561085b57805f5260205f20601f840160051c810160208510156108395750805b601f840160051c820191505b81811015610858575f8155600101610845565b50505b505050565b815167ffffffffffffffff81111561087a5761087a6105aa565b61088e8161088884546107dc565b84610814565b602080601f8311600181146108c1575f84156108aa5750858301515b5f19600386901b1c1916600185901b178555610918565b5f85815260208120601f198616915b828110156108ef578886015182559484019460019091019084016108d0565b508582101561090c57878501515f19600388901b60f8161c191681555b505060018460011b0185555b505050505050565b848152608060208201525f61093860808301866106c9565b828103604084015261094a81866106c9565b9050828103606084015261095e81856106c9565b97965050505050505056fea2646970667358221220617e9f01310d9dc6d59f9384ce1af796b263346a49722cd718beb0b05fc3e29864736f6c63430008190033",
      "opcodes": "PUSH1 0x80 PUSH1 0x40 MSTORE PUSH1 0x1 DUP1 SLOAD PUSH1 0x1 PUSH1 0x1 PUSH1 0xA0 SHL SUB NOT AND CALLER OR SWAP1 SSTORE PUSH2 0x99F DUP1 PUSH2 0x23 PUSH0 CODECOPY PUSH0 RETURN INVALID PUSH1 0x80 PUSH1 0x40 MSTORE PUSH1 0x4 CALLDATASIZE LT PUSH2 0x58 JUMPI PUSH0 CALLDATALOAD PUSH1 0xE0 SHR DUP1 PUSH4 0x9F34FA93 GT PUSH2 0x41 JUMPI DUP1 PUSH4 0x9F34FA93 EQ PUSH2 0xAD JUMPI DUP1 PUSH4 0xAE613705 EQ PUSH2 0xCA JUMPI DUP1 PUSH4 0xF65BCFD6 EQ PUSH2 0xEB JUMPI PUSH0 DUP1 REVERT JUMPDEST DUP1 PUSH4 0x8DA5CB5B EQ PUSH2 0x5C JUMPI DUP1 PUSH4 0x97B116AA EQ PUSH2 0x98 JUMPI JUMPDEST PUSH0 DUP1 REVERT JUMPDEST CALLVALUE DUP1 ISZERO PUSH2 0x67 JUMPI PUSH0 DUP1 REVERT JUMPDEST POP PUSH1 0x1 SLOAD PUSH2 0x7B SWAP1 PUSH1 0x1 PUSH1 0x1 PUSH1 0xA0 SHL SUB AND DUP2 JUMP JUMPDEST PUSH1 0x40 MLOAD PUSH1 0x1 PUSH1 0x1 PUSH1 0xA0 SHL SUB SWAP1 SWAP2 AND DUP2 MSTORE PUSH1 0x20 ADD JUMPDEST PUSH1 0x40 MLOAD DUP1 SWAP2 SUB SWAP1 RETURN JUMPDEST PUSH2 0xAB PUSH2 0xA6 CALLDATASIZE PUSH1 0x4 PUSH2 0x647 JUMP JUMPDEST PUSH2 0xFF JUMP JUMPDEST STOP JUMPDEST CALLVALUE DUP1 ISZERO PUSH2 0xB8 JUMPI PUSH0 DUP1 REVERT JUMPDEST POP PUSH0 SLOAD JUMPDEST PUSH1 0x40 MLOAD SWAP1 DUP2 MSTORE PUSH1 0x20 ADD PUSH2 0x8F JUMP JUMPDEST CALLVALUE DUP1 ISZERO PUSH2 0xD5 JUMPI PUSH0 DUP1 REVERT JUMPDEST POP PUSH2 0xDE PUSH2 0x37F JUMP JUMPDEST PUSH1 0x40 MLOAD PUSH2 0x8F SWAP2 SWAP1 PUSH2 0x6F7 JUMP JUMPDEST CALLVALUE DUP1 ISZERO PUSH2 0xF6 JUMPI PUSH0 DUP1 REVERT JUMPDEST POP PUSH2 0xBC PUSH0 SLOAD DUP2 JUMP JUMPDEST CALLVALUE PUSH7 0x2386F26FC10000 EQ PUSH2 0x180 JUMPI PUSH1 0x40 MLOAD PUSH3 0x461BCD PUSH1 0xE5 SHL DUP2 MSTORE PUSH1 0x20 PUSH1 0x4 DUP3 ADD MSTORE PUSH1 0x28 PUSH1 0x24 DUP3 ADD MSTORE PUSH32 0x596F75206861766520746F2070617920302E303120657468657220746F20706C PUSH1 0x44 DUP3 ADD MSTORE PUSH32 0x616365206164642E000000000000000000000000000000000000000000000000 PUSH1 0x64 DUP3 ADD MSTORE PUSH1 0x84 ADD JUMPDEST PUSH1 0x40 MLOAD DUP1 SWAP2 SUB SWAP1 REVERT JUMPDEST PUSH1 0x1 PUSH0 DUP1 DUP3 DUP3 SLOAD PUSH2 0x191 SWAP2 SWAP1 PUSH2 0x7B7 JUMP JUMPDEST SWAP1 SWAP2 SSTORE POP POP PUSH1 0x40 DUP1 MLOAD PUSH1 0xA0 DUP2 ADD DUP3 MSTORE TIMESTAMP DUP2 MSTORE PUSH1 0x20 DUP2 ADD DUP5 DUP2 MSTORE SWAP2 DUP2 ADD DUP6 SWAP1 MSTORE PUSH1 0x60 DUP2 ADD DUP4 SWAP1 MSTORE CALLER PUSH1 0x80 DUP3 ADD MSTORE PUSH1 0x2 DUP1 SLOAD PUSH1 0x1 DUP2 ADD DUP3 SSTORE PUSH0 SWAP2 SWAP1 SWAP2 MSTORE DUP2 MLOAD PUSH1 0x5 SWAP1 SWAP2 MUL PUSH32 0x405787FA12A823E0F2B7631CC41B3BA8828B3321CA811111FA75CD3AA3BB5ACE DUP2 ADD SWAP2 DUP3 SSTORE SWAP3 MLOAD SWAP2 SWAP3 SWAP1 SWAP2 PUSH32 0x405787FA12A823E0F2B7631CC41B3BA8828B3321CA811111FA75CD3AA3BB5ACF SWAP1 SWAP2 ADD SWAP1 PUSH2 0x22E SWAP1 DUP3 PUSH2 0x860 JUMP JUMPDEST POP PUSH1 0x40 DUP3 ADD MLOAD PUSH1 0x2 DUP3 ADD SWAP1 PUSH2 0x243 SWAP1 DUP3 PUSH2 0x860 JUMP JUMPDEST POP PUSH1 0x60 DUP3 ADD MLOAD PUSH1 0x3 DUP3 ADD SWAP1 PUSH2 0x258 SWAP1 DUP3 PUSH2 0x860 JUMP JUMPDEST POP PUSH1 0x80 SWAP2 SWAP1 SWAP2 ADD MLOAD PUSH1 0x4 SWAP1 SWAP2 ADD DUP1 SLOAD PUSH32 0xFFFFFFFFFFFFFFFFFFFFFFFF0000000000000000000000000000000000000000 AND PUSH1 0x1 PUSH1 0x1 PUSH1 0xA0 SHL SUB SWAP3 DUP4 AND OR SWAP1 SSTORE PUSH1 0x1 SLOAD PUSH1 0x40 MLOAD PUSH0 SWAP3 SWAP2 SWAP1 SWAP2 AND SWAP1 CALLVALUE SWAP1 DUP4 DUP2 DUP2 DUP2 DUP6 DUP8 GAS CALL SWAP3 POP POP POP RETURNDATASIZE DUP1 PUSH0 DUP2 EQ PUSH2 0x2DC JUMPI PUSH1 0x40 MLOAD SWAP2 POP PUSH1 0x1F NOT PUSH1 0x3F RETURNDATASIZE ADD AND DUP3 ADD PUSH1 0x40 MSTORE RETURNDATASIZE DUP3 MSTORE RETURNDATASIZE PUSH0 PUSH1 0x20 DUP5 ADD RETURNDATACOPY PUSH2 0x2E1 JUMP JUMPDEST PUSH1 0x60 SWAP2 POP JUMPDEST POP POP SWAP1 POP DUP1 PUSH2 0x332 JUMPI PUSH1 0x40 MLOAD PUSH3 0x461BCD PUSH1 0xE5 SHL DUP2 MSTORE PUSH1 0x20 PUSH1 0x4 DUP3 ADD MSTORE PUSH1 0x16 PUSH1 0x24 DUP3 ADD MSTORE PUSH32 0x4661696C656420746F2070617920666F72206164642E00000000000000000000 PUSH1 0x44 DUP3 ADD MSTORE PUSH1 0x64 ADD PUSH2 0x177 JUMP JUMPDEST CALLER PUSH1 0x1 PUSH1 0x1 PUSH1 0xA0 SHL SUB AND PUSH32 0xC1B504ACC91EF26C45194965A61EC574DECD67E5EF7826D718F190DED3A19921 TIMESTAMP DUP7 DUP7 DUP7 PUSH1 0x40 MLOAD PUSH2 0x371 SWAP5 SWAP4 SWAP3 SWAP2 SWAP1 PUSH2 0x920 JUMP JUMPDEST PUSH1 0x40 MLOAD DUP1 SWAP2 SUB SWAP1 LOG2 POP POP POP POP JUMP JUMPDEST PUSH1 0x60 PUSH1 0x2 DUP1 SLOAD DUP1 PUSH1 0x20 MUL PUSH1 0x20 ADD PUSH1 0x40 MLOAD SWAP1 DUP2 ADD PUSH1 0x40 MSTORE DUP1 SWAP3 SWAP2 SWAP1 DUP2 DUP2 MSTORE PUSH1 0x20 ADD PUSH0 SWAP1 JUMPDEST DUP3 DUP3 LT ISZERO PUSH2 0x5A1 JUMPI DUP4 DUP3 SWAP1 PUSH0 MSTORE PUSH1 0x20 PUSH0 KECCAK256 SWAP1 PUSH1 0x5 MUL ADD PUSH1 0x40 MLOAD DUP1 PUSH1 0xA0 ADD PUSH1 0x40 MSTORE SWAP1 DUP2 PUSH0 DUP3 ADD SLOAD DUP2 MSTORE PUSH1 0x20 ADD PUSH1 0x1 DUP3 ADD DUP1 SLOAD PUSH2 0x3DC SWAP1 PUSH2 0x7DC JUMP JUMPDEST DUP1 PUSH1 0x1F ADD PUSH1 0x20 DUP1 SWAP2 DIV MUL PUSH1 0x20 ADD PUSH1 0x40 MLOAD SWAP1 DUP2 ADD PUSH1 0x40 MSTORE DUP1 SWAP3 SWAP2 SWAP1 DUP2 DUP2 MSTORE PUSH1 0x20 ADD DUP3 DUP1 SLOAD PUSH2 0x408 SWAP1 PUSH2 0x7DC JUMP JUMPDEST DUP1 ISZERO PUSH2 0x453 JUMPI DUP1 PUSH1 0x1F LT PUSH2 0x42A JUMPI PUSH2 0x100 DUP1 DUP4 SLOAD DIV MUL DUP4 MSTORE SWAP2 PUSH1 0x20 ADD SWAP2 PUSH2 0x453 JUMP JUMPDEST DUP3 ADD SWAP2 SWAP1 PUSH0 MSTORE PUSH1 0x20 PUSH0 KECCAK256 SWAP1 JUMPDEST DUP2 SLOAD DUP2 MSTORE SWAP1 PUSH1 0x1 ADD SWAP1 PUSH1 0x20 ADD DUP1 DUP4 GT PUSH2 0x436 JUMPI DUP3 SWAP1 SUB PUSH1 0x1F AND DUP3 ADD SWAP2 JUMPDEST POP POP POP POP POP DUP2 MSTORE PUSH1 0x20 ADD PUSH1 0x2 DUP3 ADD DUP1 SLOAD PUSH2 0x46C SWAP1 PUSH2 0x7DC JUMP JUMPDEST DUP1 PUSH1 0x1F ADD PUSH1 0x20 DUP1 SWAP2 DIV MUL PUSH1 0x20 ADD PUSH1 0x40 MLOAD SWAP1 DUP2 ADD PUSH1 0x40 MSTORE DUP1 SWAP3 SWAP2 SWAP1 DUP2 DUP2 MSTORE PUSH1 0x20 ADD DUP3 DUP1 SLOAD PUSH2 0x498 SWAP1 PUSH2 0x7DC JUMP JUMPDEST DUP1 ISZERO PUSH2 0x4E3 JUMPI DUP1 PUSH1 0x1F LT PUSH2 0x4BA JUMPI PUSH2 0x100 DUP1 DUP4 SLOAD DIV MUL DUP4 MSTORE SWAP2 PUSH1 0x20 ADD SWAP2 PUSH2 0x4E3 JUMP JUMPDEST DUP3 ADD SWAP2 SWAP1 PUSH0 MSTORE PUSH1 0x20 PUSH0 KECCAK256 SWAP1 JUMPDEST DUP2 SLOAD DUP2 MSTORE SWAP1 PUSH1 0x1 ADD SWAP1 PUSH1 0x20 ADD DUP1 DUP4 GT PUSH2 0x4C6 JUMPI DUP3 SWAP1 SUB PUSH1 0x1F AND DUP3 ADD SWAP2 JUMPDEST POP POP POP POP POP DUP2 MSTORE PUSH1 0x20 ADD PUSH1 0x3 DUP3 ADD DUP1 SLOAD PUSH2 0x4FC SWAP1 PUSH2 0x7DC JUMP JUMPDEST DUP1 PUSH1 0x1F ADD PUSH1 0x20 DUP1 SWAP2 DIV MUL PUSH1 0x20 ADD PUSH1 0x40 MLOAD SWAP1 DUP2 ADD PUSH1 0x40 MSTORE DUP1 SWAP3 SWAP2 SWAP1 DUP2 DUP2 MSTORE PUSH1 0x20 ADD DUP3 DUP1 SLOAD PUSH2 0x528 SWAP1 PUSH2 0x7DC JUMP JUMPDEST DUP1 ISZERO PUSH2 0x573 JUMPI DUP1 PUSH1 0x1F LT PUSH2 0x54A JUMPI PUSH2 0x100 DUP1 DUP4 SLOAD DIV MUL DUP4 MSTORE SWAP2 PUSH1 0x20 ADD SWAP2 PUSH2 0x573 JUMP JUMPDEST DUP3 ADD SWAP2 SWAP1 PUSH0 MSTORE PUSH1 0x20 PUSH0 KECCAK256 SWAP1 JUMPDEST DUP2 SLOAD DUP2 MSTORE SWAP1 PUSH1 0x1 ADD SWAP1 PUSH1 0x20 ADD DUP1 DUP4 GT PUSH2 0x556 JUMPI DUP3 SWAP1 SUB PUSH1 0x1F AND DUP3 ADD SWAP2 JUMPDEST POP POP POP SWAP2 DUP4 MSTORE POP POP PUSH1 0x4 SWAP2 SWAP1 SWAP2 ADD SLOAD PUSH1 0x1 PUSH1 0x1 PUSH1 0xA0 SHL SUB AND PUSH1 0x20 SWAP2 DUP3 ADD MSTORE SWAP1 DUP3 MSTORE PUSH1 0x1 SWAP3 SWAP1 SWAP3 ADD SWAP2 ADD PUSH2 0x3A2 JUMP JUMPDEST POP POP POP POP SWAP1 POP SWAP1 JUMP JUMPDEST PUSH4 0x4E487B71 PUSH1 0xE0 SHL PUSH0 MSTORE PUSH1 0x41 PUSH1 0x4 MSTORE PUSH1 0x24 PUSH0 REVERT JUMPDEST PUSH0 DUP3 PUSH1 0x1F DUP4 ADD SLT PUSH2 0x5CD JUMPI PUSH0 DUP1 REVERT JUMPDEST DUP2 CALLDATALOAD PUSH8 0xFFFFFFFFFFFFFFFF DUP1 DUP3 GT ISZERO PUSH2 0x5E8 JUMPI PUSH2 0x5E8 PUSH2 0x5AA JUMP JUMPDEST PUSH1 0x40 MLOAD PUSH1 0x1F DUP4 ADD PUSH1 0x1F NOT SWAP1 DUP2 AND PUSH1 0x3F ADD AND DUP2 ADD SWAP1 DUP3 DUP3 GT DUP2 DUP4 LT OR ISZERO PUSH2 0x610 JUMPI PUSH2 0x610 PUSH2 0x5AA JUMP JUMPDEST DUP2 PUSH1 0x40 MSTORE DUP4 DUP2 MSTORE DUP7 PUSH1 0x20 DUP6 DUP9 ADD ADD GT ISZERO PUSH2 0x628 JUMPI PUSH0 DUP1 REVERT JUMPDEST DUP4 PUSH1 0x20 DUP8 ADD PUSH1 0x20 DUP4 ADD CALLDATACOPY PUSH0 PUSH1 0x20 DUP6 DUP4 ADD ADD MSTORE DUP1 SWAP5 POP POP POP POP POP SWAP3 SWAP2 POP POP JUMP JUMPDEST PUSH0 DUP1 PUSH0 PUSH1 0x60 DUP5 DUP7 SUB SLT ISZERO PUSH2 0x659 JUMPI PUSH0 DUP1 REVERT JUMPDEST DUP4 CALLDATALOAD PUSH8 0xFFFFFFFFFFFFFFFF DUP1 DUP3 GT ISZERO PUSH2 0x670 JUMPI PUSH0 DUP1 REVERT JUMPDEST PUSH2 0x67C DUP8 DUP4 DUP9 ADD PUSH2 0x5BE JUMP JUMPDEST SWAP5 POP PUSH1 0x20 DUP7 ADD CALLDATALOAD SWAP2 POP DUP1 DUP3 GT ISZERO PUSH2 0x691 JUMPI PUSH0 DUP1 REVERT JUMPDEST PUSH2 0x69D DUP8 DUP4 DUP9 ADD PUSH2 0x5BE JUMP JUMPDEST SWAP4 POP PUSH1 0x40 DUP7 ADD CALLDATALOAD SWAP2 POP DUP1 DUP3 GT ISZERO PUSH2 0x6B2 JUMPI PUSH0 DUP1 REVERT JUMPDEST POP PUSH2 0x6BF DUP7 DUP3 DUP8 ADD PUSH2 0x5BE JUMP JUMPDEST SWAP2 POP POP SWAP3 POP SWAP3 POP SWAP3 JUMP JUMPDEST PUSH0 DUP2 MLOAD DUP1 DUP5 MSTORE DUP1 PUSH1 0x20 DUP5 ADD PUSH1 0x20 DUP7 ADD MCOPY PUSH0 PUSH1 0x20 DUP3 DUP7 ADD ADD MSTORE PUSH1 0x20 PUSH1 0x1F NOT PUSH1 0x1F DUP4 ADD AND DUP6 ADD ADD SWAP2 POP POP SWAP3 SWAP2 POP POP JUMP JUMPDEST PUSH0 PUSH1 0x20 DUP1 DUP4 ADD DUP2 DUP5 MSTORE DUP1 DUP6 MLOAD DUP1 DUP4 MSTORE PUSH1 0x40 SWAP3 POP PUSH1 0x40 DUP7 ADD SWAP2 POP PUSH1 0x40 DUP2 PUSH1 0x5 SHL DUP8 ADD ADD DUP5 DUP9 ADD PUSH0 JUMPDEST DUP4 DUP2 LT ISZERO PUSH2 0x7A9 JUMPI PUSH1 0x3F NOT DUP10 DUP5 SUB ADD DUP6 MSTORE DUP2 MLOAD PUSH1 0xA0 DUP2 MLOAD DUP6 MSTORE DUP9 DUP3 ADD MLOAD DUP2 DUP11 DUP8 ADD MSTORE PUSH2 0x74C DUP3 DUP8 ADD DUP3 PUSH2 0x6C9 JUMP JUMPDEST SWAP2 POP POP DUP8 DUP3 ADD MLOAD DUP6 DUP3 SUB DUP10 DUP8 ADD MSTORE PUSH2 0x764 DUP3 DUP3 PUSH2 0x6C9 JUMP JUMPDEST SWAP2 POP POP PUSH1 0x60 DUP1 DUP4 ADD MLOAD DUP7 DUP4 SUB DUP3 DUP9 ADD MSTORE PUSH2 0x77E DUP4 DUP3 PUSH2 0x6C9 JUMP JUMPDEST PUSH1 0x80 SWAP5 DUP6 ADD MLOAD PUSH1 0x1 PUSH1 0x1 PUSH1 0xA0 SHL SUB AND SWAP8 SWAP1 SWAP5 ADD SWAP7 SWAP1 SWAP7 MSTORE POP POP SWAP5 DUP8 ADD SWAP5 SWAP3 POP SWAP1 DUP7 ADD SWAP1 PUSH1 0x1 ADD PUSH2 0x71E JUMP JUMPDEST POP SWAP1 SWAP9 SWAP8 POP POP POP POP POP POP POP POP JUMP JUMPDEST DUP1 DUP3 ADD DUP1 DUP3 GT ISZERO PUSH2 0x7D6 JUMPI PUSH4 0x4E487B71 PUSH1 0xE0 SHL PUSH0 MSTORE PUSH1 0x11 PUSH1 0x4 MSTORE PUSH1 0x24 PUSH0 REVERT JUMPDEST SWAP3 SWAP2 POP POP JUMP JUMPDEST PUSH1 0x1 DUP2 DUP2 SHR SWAP1 DUP3 AND DUP1 PUSH2 0x7F0 JUMPI PUSH1 0x7F DUP3 AND SWAP2 POP JUMPDEST PUSH1 0x20 DUP3 LT DUP2 SUB PUSH2 0x80E JUMPI PUSH4 0x4E487B71 PUSH1 0xE0 SHL PUSH0 MSTORE PUSH1 0x22 PUSH1 0x4 MSTORE PUSH1 0x24 PUSH0 REVERT JUMPDEST POP SWAP2 SWAP1 POP JUMP JUMPDEST PUSH1 0x1F DUP3 GT ISZERO PUSH2 0x85B JUMPI DUP1 PUSH0 MSTORE PUSH1 0x20 PUSH0 KECCAK256 PUSH1 0x1F DUP5 ADD PUSH1 0x5 SHR DUP2 ADD PUSH1 0x20 DUP6 LT ISZERO PUSH2 0x839 JUMPI POP DUP1 JUMPDEST PUSH1 0x1F DUP5 ADD PUSH1 0x5 SHR DUP3 ADD SWAP2 POP JUMPDEST DUP2 DUP2 LT ISZERO PUSH2 0x858 JUMPI PUSH0 DUP2 SSTORE PUSH1 0x1 ADD PUSH2 0x845 JUMP JUMPDEST POP POP JUMPDEST POP POP POP JUMP JUMPDEST DUP2 MLOAD PUSH8 0xFFFFFFFFFFFFFFFF DUP2 GT ISZERO PUSH2 0x87A JUMPI PUSH2 0x87A PUSH2 0x5AA JUMP JUMPDEST PUSH2 0x88E DUP2 PUSH2 0x888 DUP5 SLOAD PUSH2 0x7DC JUMP JUMPDEST DUP5 PUSH2 0x814 JUMP JUMPDEST PUSH1 0x20 DUP1 PUSH1 0x1F DUP4 GT PUSH1 0x1 DUP2 EQ PUSH2 0x8C1 JUMPI PUSH0 DUP5 ISZERO PUSH2 0x8AA JUMPI POP DUP6 DUP4 ADD MLOAD JUMPDEST PUSH0 NOT PUSH1 0x3 DUP7 SWAP1 SHL SHR NOT AND PUSH1 0x1 DUP6 SWAP1 SHL OR DUP6 SSTORE PUSH2 0x918 JUMP JUMPDEST PUSH0 DUP6 DUP2 MSTORE PUSH1 0x20 DUP2 KECCAK256 PUSH1 0x1F NOT DUP7 AND SWAP2 JUMPDEST DUP3 DUP2 LT ISZERO PUSH2 0x8EF JUMPI DUP9 DUP7 ADD MLOAD DUP3 SSTORE SWAP5 DUP5 ADD SWAP5 PUSH1 0x1 SWAP1 SWAP2 ADD SWAP1 DUP5 ADD PUSH2 0x8D0 JUMP JUMPDEST POP DUP6 DUP3 LT ISZERO PUSH2 0x90C JUMPI DUP8 DUP6 ADD MLOAD PUSH0 NOT PUSH1 0x3 DUP9 SWAP1 SHL PUSH1 0xF8 AND SHR NOT AND DUP2 SSTORE JUMPDEST POP POP PUSH1 0x1 DUP5 PUSH1 0x1 SHL ADD DUP6 SSTORE JUMPDEST POP POP POP POP POP POP JUMP JUMPDEST DUP5 DUP2 MSTORE PUSH1 0x80 PUSH1 0x20 DUP3 ADD MSTORE PUSH0 PUSH2 0x938 PUSH1 0x80 DUP4 ADD DUP7 PUSH2 0x6C9 JUMP JUMPDEST DUP3 DUP2 SUB PUSH1 0x40 DUP5 ADD MSTORE PUSH2 0x94A DUP2 DUP7 PUSH2 0x6C9 JUMP JUMPDEST SWAP1 POP DUP3 DUP2 SUB PUSH1 0x60 DUP5 ADD MSTORE PUSH2 0x95E DUP2 DUP6 PUSH2 0x6C9 JUMP JUMPDEST SWAP8 SWAP7 POP POP POP POP POP POP POP JUMP INVALID LOG2 PUSH5 0x6970667358 0x22 SLT KECCAK256 PUSH2 0x7E9F ADD BALANCE 0xD SWAP14 0xC6 0xD5 SWAP16 SWAP4 DUP5 0xCE BYTE 0xF7 SWAP7 0xB2 PUSH4 0x346A4972 0x2C 0xD7 XOR 0xBE 0xB0 0xB0 PUSH0 0xC3 0xE2 SWAP9 PUSH5 0x736F6C6343 STOP ADDMOD NOT STOP CALLER "
    },
    "gasEstimates": {
      "creation": {
        "codeDepositCost": "492600",
        "executionCost": "24733",
        "totalCost": "517333"
      },
      "external": {
        "getAdds()": "infinite",
        "getTotalAdds()": "2279",
        "owner()": "2326",
        "placeAdd(string,string,string)": "infinite",
        "totalAds()": "2337"
      }
    },
    "methodIdentifiers": {
      "getAdds()": "ae613705",
      "getTotalAdds()": "9f34fa93",
      "owner()": "8da5cb5b",
      "placeAdd(string,string,string)": "97b116aa",
      "totalAds()": "f65bcfd6"
    }
  },
  "storageLayout": {
    "storage": [
      {
        "astId": 3,
        "contract": "Contract.sol:MyContract",
        "label": "totalAds",
        "offset": 0,
        "slot": "0",
        "type": "t_uint256"
      },
      {
        "astId": 5,
        "contract": "Contract.sol:MyContract",
        "label": "owner",
        "offset": 0,
        "slot": "1",
        "type": "t_address_payable"
      },
      {
        "astId": 44,
        "contract": "Contract.sol:MyContract",
        "label": "adds",
        "offset": 0,
        "slot": "2",
        "type": "t_array(t_struct(Add)40_storage)dyn_storage"
      }
    ],
    "types": {
      "t_address": {
        "encoding": "inplace",
        "label": "address",
        "numberOfBytes": "20"
      },
      "t_address_payable": {
        "encoding": "inplace",
        "label": "address payable",
        "numberOfBytes": "20"
      },
      "t_array(t_struct(Add)40_storage)dyn_storage": {
        "base": "t_struct(Add)40_storage",
        "encoding": "dynamic_array",
        "label": "struct MyContract.Add[]",
        "numberOfBytes": "32"
      },
      "t_string_storage": {
        "encoding": "bytes",
        "label": "string",
        "numberOfBytes": "32"
      },
      "t_struct(Add)40_storage": {
        "encoding": "inplace",
        "label": "struct MyContract.Add",
        "members": [
          {
            "astId": 31,
            "contract": "Contract.sol:MyContract",
            "label": "timestamp",
            "offset": 0,
            "slot": "0",
            "type": "t_uint256"
          },
          {
            "astId": 33,
            "contract": "Contract.sol:MyContract",
            "label": "name",
            "offset": 0,
            "slot": "1",
            "type": "t_string_storage"
          },
          {
            "astId": 35,
            "contract": "Contract.sol:MyContract",
            "label": "message",
            "offset": 0,
            "slot": "2",
            "type": "t_string_storage"
          },
          {
            "astId": 37,
            "contract": "Contract.sol:MyContract",
            "label": "image",
            "offset": 0,
            "slot": "3",
            "type": "t_string_storage"
          },
          {
            "astId": 39,
            "contract": "Contract.sol:MyContract",
            "label": "sender",
            "offset": 0,
            "slot": "4",
            "type": "t_address"
          }
        ],
        "numberOfBytes": "160"
      },
      "t_uint256": {
        "encoding": "inplace",
        "label": "uint256",
        "numberOfBytes": "32"
      }
    }
  },
  "userdoc": {
    "kind": "user",
    "methods": {},
    "version": 1
  }
}